:020000040800F2
:1000000000280020A51B0008351B00083B1B00082A
:10001000411B0008471B00084D1B000800000000A2
:10002000000000000000000000000000531B00085A
:100030005F1B0008000000006B1B0008771B000816
:10004000ED1B0008ED1B0008ED1B0008ED1B000870
:10005000ED1B0008ED1B0008ED1B0008ED1B000860
:10006000ED1B0008ED1B0008ED1B0008ED1B000850
:10007000ED1B0008ED1B0008ED1B0008ED1B000840
:10008000ED1B0008ED1B0008ED1B0008ED1B000830
:10009000ED1B0008ED1B0008ED1B0008ED1B000820
:1000A000ED1B0008ED1B0008ED1B0008ED1B000810
:1000B000851B0008ED1B000800000000ED1B000878
:1000C000ED1B00080000000000000000ED1B000810
:1000D00000000000ED1B0008ED1B00080000000000
:1000E000ED1B0008ED1B0008ED1B000800000000E0
:1000F0000000000000000000000000000000000000
:0C01000000000000000000005FF808F1A3
:10010C0010B5054C237833B9044B13B10448AFF345
:10011C0000800123237010BD70000020000000003F
:10012C004832000808B5034B1BB103490348AFF331
:10013C00008008BD00000000740000204832000858
:10014C0080B400AF064B1B68012B04D1044B00227A
:10015C001A60012300E000231846BD4680BC70479E
:10016C008C00002080B400AF064B1B68012B04D11F
:10017C00044B00221A60012300E000231846BD4600
:10018C0080BC70479000002080B400AF064B1B6809
:10019C00012B04D1044B00221A60012300E0002340
:1001AC001846BD4680BC70479400002080B400AF58
:1001BC00034B01221A6000BFBD4680BC704700BFD4
:1001CC008C00002080B400AF034B01221A6000BFEA
:1001DC00BD4680BC704700BF9000002080B400AFCB
:1001EC00034B01221A6000BFBD4680BC704700BFA4
:1001FC009400002080B500AF224B1B68224A13608C
:10020C00224B1B681F4A13604FF40051204801F029
:10021C00D5FF03461A461D4B1A601A4B1A681B4B26
:10022C001B689A422BD1174B1A68174B1B689A42C2
:10023C0025D1154B1A68174B1B689A420DD0124BDF
:10024C001B68144A1360104B1B68002B17D1124B00
:10025C0064221A60FFF7AAFF11E00F4B1B68013BE9
:10026C000D4A13600C4B1B68002B08D1064B1B6806
:10027C00002B01D1FFF79AFF074B64221A6000BFD5
:10028C0080BD00BF040000200800002000000020FA
:10029C00001001400C0000203000002080B500AFA1
:1002AC00224B1B68224A1360224B1B681F4A1360A7
:1002BC004FF40041204801F081FF03461A461D4BC4
:1002CC001A601A4B1A681B4B1B689A422BD1174B9E
:1002DC001A68174B1B689A4225D1154B1A68174B95
:1002EC001B689A420DD0124B1B68144A1360104BBA
:1002FC001B68002B17D1124B64221A60FFF76EFF9C
:10030C0011E00F4B1B68013B0D4A13600C4B1B6833
:10031C00002B08D1064B1B68002B01D1FFF75EFFA9
:10032C00074B64221A6000BF80BD00BF2400002070
:10033C002800002020000020001001402C0000208C
:10034C003000002080B500AF224B1B68224A13609E
:10035C00224B1B681F4A13604FF48041204801F068
:10036C002DFF03461A461D4B1A601A4B1A681B4B7D
:10037C001B689A422BD1174B1A68174B1B689A4271
:10038C0025D1154B1A68174B1B689A420DD0124B8E
:10039C001B68144A1360104B1B68002B17D1124BAF
:1003AC0064221A60FFF70EFF11E00F4B1B68013B34
:1003BC000D4A13600C4B1B68002B08D1064B1B68B5
:1003CC00002B01D1FFF7FEFE074B64221A6000BF21
:1003DC0080BD00BF14000020180000201000002079
:1003EC00001001401C0000203000002080B582B0BD
:1003FC0000AF78607B68002B22D100220121BD4820
:10040C0001F0F3FE00220221BA4801F0EEFE0022B8
:10041C000421B84801F0E9FE00220821B54801F09A
:10042C00E4FE00221021B34801F0DFFE002220215F
:10043C00B04801F0DAFE01224021AE4801F0D5FEB1
:10044C007B68012B22D101220121AA4801F0CDFEAB
:10045C0000220221A74801F0C8FE00220421A54871
:10046C0001F0C3FE01220821A24801F0BEFE0122C8
:10047C001021A04801F0B9FE012220219D4801F075
:10048C00B4FE012240219B4801F0AFFE7B68022B99
:10049C0022D100220121974801F0A7FE002202215F
:1004AC00944801F0A2FE01220421924801F09DFE25
:1004BC00002208218F4801F098FE002210218D485F
:1004CC0001F093FE012220218A4801F08EFE0022C9
:1004DC004021884801F089FE7B68032B22D1002241
:1004EC000121844801F081FE00220221814801F0A3
:1004FC007CFE002204217F4801F077FE00220821B7
:10050C007C4801F072FE012210217A4801F06DFE48
:10051C0001222021774801F068FE00224021754815
:10052C0001F063FE7B68042B22D10122012171486A
:10053C0001F05BFE002202216E4801F056FE002203
:10054C0004216C4801F051FE01220821694801F098
:10055C004CFE01221021674801F047FE00222021A9
:10056C00644801F042FE00224021624801F03DFE49
:10057C007B68052B22D1002201215E4801F035FE5B
:10058C00012202215B4801F030FE0022042159486F
:10059C0001F02BFE00220821564801F026FE012214
:1005AC001021544801F021FE00222021514801F075
:1005BC001CFE002240214F4801F017FE7B68062BE1
:1005CC0022D1002201214B4801F00FFE0122022111
:1005DC00484801F00AFE00220421464801F005FEBD
:1005EC0000220821434801F000FE0022102141485E
:1005FC0001F0FBFD002220213E4801F0F6FD002217
:10060C0040213C4801F0F1FD7B68072B22D10022F0
:10061C000121384801F0E9FD00220221354801F0A2
:10062C00E4FD00220421334801F0DFFD0122082102
:10063C00304801F0DAFD012210212E4801F0D5FDE1
:10064C00012220212B4801F0D0FD01224021294814
:10065C0001F0CBFD7B68082B22D10022012125481B
:10066C0001F0C3FD00220221224801F0BEFD002250
:10067C000421204801F0B9FD002208211D4801F099
:10068C00B4FD002210211B4801F0AFFD00222021F7
:10069C00184801F0AAFD00224021164801F0A5FDE2
:1006AC007B68092B22D100220121124801F09DFD0B
:1006BC00002202210F4801F098FD002204210D4870
:1006CC0001F093FD002208210A4801F08EFD012261
:1006DC001021084801F089FD00222021054801F075
:1006EC0084FD00224021034801F07FFD00BF083744
:1006FC00BD4680BD000C014080B582B000AF786073
:10070C007B68002B28D100228021CF4801F06DFDA1
:10071C0000224FF48071CC4801F067FD00224FF4A9
:10072C000071C94801F061FD00224FF48061C64898
:10073C0001F05BFD00224FF40061C34801F055FD50
:10074C0000224FF48051C04801F04FFD01224FF4BC
:10075C000051BD4801F049FD7B68012B28D10122D5
:10076C008021B94801F041FD00224FF48071B64858
:10077C0001F03BFD00224FF40071B34801F035FD50
:10078C0001224FF48061B04801F02FFD01224FF49B
:10079C000061AD4801F029FD01224FF48051AA48B7
:1007AC0001F023FD01224FF40051A74801F01DFD7B
:1007BC007B68022B28D100228021A34801F015FD73
:1007CC0000224FF48071A04801F00FFD01224FF47C
:1007DC0000719D4801F009FD00224FF480619A4898
:1007EC0001F003FD00224FF40061974801F0FDFC7D
:1007FC0001224FF48051944801F0F7FC00224FF491
:10080C000051914801F0F1FC7B68032B28D10022A8
:10081C0080218D4801F0E9FC00224FF480718A4858
:10082C0001F0E3FC00224FF40071874801F0DDFC7D
:10083C0000224FF48061844801F0D7FC01224FF470
:10084C000061814801F0D1FC01224FF480517E48B7
:10085C0001F0CBFC00224FF400517B4801F0C5FCA9
:10086C007B68042B28D101228021774801F0BDFC44
:10087C0000224FF48071744801F0B7FC00224FF451
:10088C000071714801F0B1FC01224FF480616E4897
:10089C0001F0ABFC01224FF400616B4801F0A5FCA8
:1008AC0000224FF48051684801F09FFC00224FF465
:1008BC000051654801F099FC7B68052B28D100227A
:1008CC008021614801F091FC01224FF480715E4857
:1008DC0001F08BFC00224FF400715B4801F085FCA9
:1008EC0000224FF48061584801F07FFC01224FF444
:1008FC000061554801F079FC00224FF480515248B8
:10090C0001F073FC00224FF400514F4801F06DFCD4
:10091C007B68062B28D1002280214B4801F065FC16
:10092C0001224FF48071484801F05FFC00224FF423
:10093C000071454801F059FC00224FF48061424897
:10094C0001F053FC00224FF400613F4801F04DFCD4
:10095C0000224FF480513C4801F047FC00224FF438
:10096C000051394801F041FC7B68072B28D100224B
:10097C008021354801F039FC00224FF48071324857
:10098C0001F033FC00224FF400712F4801F02DFCD4
:10099C0001224FF480612C4801F027FC01224FF416
:1009AC000061294801F021FC01224FF480512648B6
:1009BC0001F01BFC01224FF40051234801F015FCFF
:1009CC007B68082B28D1002280211F4801F00DFCE8
:1009DC0000224FF480711C4801F007FC00224FF4F8
:1009EC000071194801F001FC00224FF48061164897
:1009FC0001F0FBFB00224FF40061134801F0F5FB02
:100A0C0000224FF48051104801F0EFFB00224FF40C
:100A1C0000510D4801F0E9FB7B68092B2BD100221A
:100A2C008021094801F0E1FB00224FF48071064857
:100A3C0001F0DBFB00224FF40071034801F0D5FB01
:100A4C0000224FF4806101E0000C01400C4801F0E1
:100A5C00CCFB01224FF40061094801F0C6FB0022D7
:100A6C004FF48051064801F0C0FB00224FF40051B6
:100A7C00034801F0BAFB00BF0837BD4680BD00BF7C
:100A8C00000C014080B582B000AF78607B68002B11
:100A9C0003D07B68012B14D027E001224FF40041D6
:100AAC00144801F0A2FB00224FF48041114801F0E0
:100ABC009CFB114A7B6852F823301846FFF796FCD2
:100ACC0013E001224FF480410A4801F08EFB002212
:100ADC004FF40041074801F088FB074A7B6852F845
:100AEC0023301846FFF782FC00BF00BF0837BD4615
:100AFC0080BD00BF000C01403800002080B582B0E2
:100B0C0000AF78607B68022B03D07B68032B14D07A
:100B1C0027E000224FF48051144801F066FB0122BB
:100B2C004FF40051114801F060FB114A7B6852F8F8
:100B3C0023301846FFF7E0FD13E001224FF48051FB
:100B4C000A4801F052FB00224FF40051074801F013
:100B5C004CFB074A7B6852F823301846FFF7CCFD54
:100B6C0000BF00BF0837BD4680BD00BF0008014074
:100B7C003800002080B483B000AF78607B680D4AE9
:100B8C0082FB03129210DB17D31A0B4A136079689D
:100B9C00084B83FB01239A10CB17D21A13469B00E8
:100BAC0013445B00CA1A044B5A6000BF0C37BD4695
:100BBC0080BC7047676666663800002080B483B0DE
:100BCC0000AF78607B680D4A82FB03129210DB1732
:100BDC00D31A0B4A93607968084B83FB01239A1054
:100BEC00CB17D21A13469B0013445B00CA1A044B52
:100BFC00DA6000BF0C37BD4680BC7047676666661E
:100C0C003800002080B500AF824B1B68013B032BE2
:100C1C0000F2888101A252F823F000BF390C0008C1
:100C2C00630C0008410D0008550E0008794B022298
:100C3C001A60794B1B68642202FB03F3184600F020
:100C4C0003FE642000F01AFE322000F04BFE734BC2
:100C5C0000221A606DE1724B1B68002B03D16E4BA6
:100C6C001B686F4A13606D4B1B68012B02DD6B4BCD
:100C7C0000221A606A4B1B681846FFF77BFF674B14
:100C8C001B681846FFF7FEFE664B1B68012B07D14D
:100C9C00634B1B68013B624A1360642000F0EEFD5D
:100CAC00614B1B68012B07D15C4B1B6801335B4A02
:100CBC001360322000F016FE002240215B4801F048
:100CCC0094FA01228021594801F08FFA01224FF445
:100CDC008071564801F089FA554B1B68012B16D1CF
:100CEC004C4B03221A60534B1B68642202FB03F328
:100CFC00184600F0A9FD504B00221A60642000F049
:100D0C00BDFD322000F0EEFD444B00221A60FFF7CF
:100D1C0017FA0346012B40F007813E4B0A221A605A
:100D2C00322000F0ABFD3D4B00221A60434B0222F7
:100D3C001A60F9E0404B1B68002B03D13D4B1B683C
:100D4C003D4A1360354B1B68012B02DD334B0022EF
:100D5C001A60394B1B681846FFF70CFF2F4B1B68AA
:100D6C001846FFF78FFE2F4B1B68012B07D1324B18
:100D7C001B68013B304A1360642000F07FFD2A4B56
:100D8C001B68012B07D1254B1B680133234A1360C9
:100D9C00322000F0A7FD01224021244801F025FA61
:100DAC0000228021214801F020FA01224FF48071A9
:100DBC001E4801F01AFA1E4B1B68012B16D1154B5D
:100DCC0004221A601E4B00221A601E4B1B68642200
:100DDC0002FB03F3184600F037FD642000F04EFDD3
:100DEC00322000F07FFD0D4B00221A60FFF7A8F9AE
:100DFC000346012B40F09A80064B0A221A603220DF
:100E0C0000F03CFD054B00221A600C4B02221A60CC
:100E1C008CE000BF9800002048000020B8000020A3
:100E2C00A000002020010020280100200008014023
:100E3C001C0100204C000020A400002034000020E5
:100E4C00A8000020500000203B4B1B68002B03D156
:100E5C003A4B1B68384A1360394B1B68012B02DD77
:100E6C00374B00221A60344B1B681846FFF782FE82
:100E7C00334B1B681846FFF705FE324B1B68012BE2
:100E8C0007D12D4B1B68013B2B4A1360642000F0EB
:100E9C00F5FC2D4B1B68012B07D1294B1B6801332B
:100EAC00274A1360322000F01DFD01224021274803
:100EBC0001F09BF901228021244801F096F90022CF
:100ECC004FF48071214801F090F9214B1B68012BE4
:100EDC0016D1204B02221A601F4B00221A601F4BA6
:100EEC001B68642202FB03F3184600F0ADFC64207F
:100EFC0000F0C4FC322000F0F5FC114B00221A600B
:100F0C00FFF71EF90346012B12D1124B0A221A606D
:100F1C00322000F0B3FC0A4B00221A60104B022264
:100F2C001A6005E000BF04E000BF02E000BF00E073
:100F3C0000BF00BF80BD00BFA800002050000020F3
:100F4C00B8000020200100202801002000080140EA
:100F5C001C01002098000020A00000204800002068
:100F6C003400002080B500AFA64B1B68013B032B5F
:100F7C0000F2468101A252F823F000BF990F00083D
:100F8C00C90F00088B1000084D1100089D4B03225F
:100F9C001A609D4B1B68642202FB03F3184600F099
:100FAC0087FC642000F0B8FC322000F0CFFC974B9B
:100FBC0002221A60964B00221A6044E1934B1B6884
:100FCC00032B02DD914B02221A60924B1B68002B03
:100FDC0003D1914B1B688F4A13608E4B1B681846CC
:100FEC00FFF7ECFD894B1B681846FFF787FD8B4B11
:100FFC001B68012B07D1874B1B68013B854A13608B
:10100C00642000F089FC864B1B68012B07D17F4BB9
:10101C001B6801337D4A1360322000F097FC0022DC
:10102C000421804801F0E1F8012208217D4801F0FB
:10103C00DCF8012210217B4801F0D7F87A4B1B68B1
:10104C00012B13D16F4B03221A60784B1B6864225F
:10105C0002FB03F3184600F02BFC642000F05CFC50
:10106C00322000F073FC6A4B00221A60704B1B6834
:10107C000A2B40F0E380634B64221A60DEE0634B82
:10108C001B68032B02DD614B02221A60604B1B684C
:10109C00002B03D1654B1B685D4A13605C4B1B68CE
:1010AC001846FFF78BFD594B1B681846FFF726FDBA
:1010BC005A4B1B68012B07D1554B1B68013B544AFB
:1010CC001360642000F028FC554B1B68012B07D1E2
:1010DC004E4B1B6801334D4A1360322000F036FC36
:1010EC00012204214F4801F080F8002208214D48CC
:1010FC0001F07BF8012210214A4801F076F84A4BA6
:10110C001B68012B13D13F4B04221A60494B002260
:10111C001A60494B1B68642202FB03F3184600F06B
:10112C00C7FB642000F0F8FB322000F00FFC404BB2
:10113C001B680A2B40F08480324B64221A607FE0DB
:10114C00324B1B68032B02DD304B02221A60394BE9
:10115C001B68002B03D1384B1B68364A1360354B88
:10116C001B681846FFF72AFD284B1B681846FFF72B
:10117C00C5FC2A4B1B68012B07D12E4B1B68013B6E
:10118C002C4A1360642000F0C7FB254B1B68012B15
:10119C0007D11E4B1B6801331C4A1360322000F030
:1011AC00D5FB012204211F4801F01FF80122082160
:1011BC001C4801F01AF8002210211A4801F015F809
:1011CC00194B1B68012B13D10E4B02221A60114BC9
:1011DC0000221A60104B1B68642202FB03F31846B2
:1011EC0000F066FB642000F097FB322000F0AEFBB1
:1011FC00044B1B680A2B25D1024B64221A6021E098
:10120C0000BF20E09C0000204C0000203400002097
:10121C00B0000020AC000020540000202C01002065
:10122C00300100200008014024010020580000205B
:10123C0098000020B40000205C00002000BF02E0F9
:10124C0000BF00E000BF00BF80BD00BF80B500AF95
:10125C00894B1B680C2B00F027810C2B00F3A3810E
:10126C000A2B03D00B2B00F084809CE1834B1B6872
:10127C00012B02DD814B00221A60814B1B68032B72
:10128C0002DD7F4B02221A607E4B1B681846FFF76B
:10129C0071FC0220FFF792FC794B1B681846FFF794
:1012AC002DFC764B1B681846FFF7ECFB01228021C6
:1012BC00754800F09AFF01224FF48071724800F0DB
:1012CC0094FF724B1B68012B14D140216E4800F027
:1012DC00A4FF04216C4800F0A0FF684B1B6801338D
:1012EC00664A1360664B1B680133654A13603220F3
:1012FC0000F0C4FAFEF724FF0346012B05D15E4B28
:10130C000B221A60322000F0B9FAFEF72BFF0346CD
:10131C00012B09D15B4B1B6801335A4A13605C4BA0
:10132C001B6801335A4A1360FEF72EFF0346012B4C
:10133C0040F03B81504B02221A60564B03221A603C
:10134C00554B00221A60554B00221A604D4B1B68FE
:10135C00013B642202FB03F3184600F075FA504B74
:10136C001B68013B642202FB03F3184600F0A0FA51
:10137C001BE1424B1B68012B02DD404B00221A6023
:10138C003F4B1B68032B02DD3D4B02221A60454B81
:10139C001B681846FFF7EEFB0320FFF70FFC384BDA
:1013AC001B681846FFF7AAFB344B1B681846FFF75F
:1013BC0069FB01224021344800F017FF01224FF451
:1013CC008071314800F011FF304B1B68012B14D198
:1013DC0080212D4800F021FF08212B4800F01DFF33
:1013EC00264B1B680133254A1360254B1B680133C0
:1013FC00234A1360322000F041FAFEF7A1FE0346A7
:10140C00012B05D11C4B0C221A60322000F036FA4D
:10141C00FEF7A8FE0346012B09D1224B1B680133B2
:10142C00204A13601E4B1B6801331D4A1360FEF7E4
:10143C00ABFE0346012B40F0BA800F4B02221A6020
:10144C00144B03221A60144B00221A60134B002217
:10145C001A600C4B1B68013B642202FB03F3184619
:10146C0000F0F2F90E4B1B68013B642202FB03F304
:10147C00184600F01DFA9AE098000020B8000020F1
:10148C00340000204800002000080140200100200A
:10149C00540000209C000020A0000020B000002080
:1014AC00580000204C000020434B1B68012B02DD30
:1014BC00414B00221A60414B1B68032B02DD3F4B52
:1014CC0002221A603E4B1B681846FFF753FB0420A0
:1014DC00FFF774FB394B1B681846FFF70FFB364BB5
:1014EC001B681846FFF7CEFA01224021354800F060
:1014FC007CFE01228021334800F077FE324B1B68C2
:10150C00012B15D14FF480712E4800F086FE10216E
:10151C002C4800F082FE284B1B680133264A1360CE
:10152C00264B1B680133254A1360322000F0A6F9C4
:10153C00FEF706FE0346012B02D1244B0A221A6049
:10154C00FEF710FE0346012B09D11D4B1B6801331E
:10155C001B4A13601E4B1B6801331D4A1360FEF7B8
:10156C0013FE0346012B24D1184B02221A60194B8F
:10157C0003221A60184B00221A60184B00221A60C2
:10158C00174B1B68013B642202FB03F3184600F067
:10159C005BF9144B1B68013B642202FB03F31846F6
:1015AC0000F086F905E000BF04E000BF02E000BFD8
:1015BC0000E000BF00BF80BDB80000203400002058
:1015CC00500000200008014020010020980000205D
:1015DC005C0000209C000020A0000020B000002037
:1015EC00480000205800002080B500AF00F0FAFA47
:1015FC000A4B01221A600A4B01221A6000F014F8FF
:10160C0000F09AF800F04CF8064801F057FAFFF792
:10161C00F9FAFFF71BFEFFF7A5FCF8E7980000208E
:10162C009C000020BC00002080B590B000AF07F1FA
:10163C00180328220021184601F0F8FD3B1D00225A
:10164C001A605A609A60DA601A610223BB61012346
:10165C00BB621023FB6200237B6307F1180318465F
:10166C0000F0F4FD0346002B01D000F0E7F80F2347
:10167C007B600023BB600023FB6000233B610023E5
:10168C007B613B1D0021184601F062F80346002BDC
:10169C0001D000F0D3F800BF4037BD4680BD00003C
:1016AC0080B586B000AF07F1080300221A605A60BB
:1016BC009A60DA603B4600221A605A601D4B4FF06C
:1016CC0080421A601B4B41F63F725A60194B002244
:1016DC009A60184B0922DA60164B00221A61154BDE
:1016EC0000229A61134801F099F90346002B01D0AE
:1016FC0000F0A4F84FF48053BB6007F108031946BF
:10170C000C4801F02FFB0346002B01D000F096F89B
:10171C0000233B6000237B603B461946054801F0E3
:10172C00F7FC0346002B01D000F088F800BF1837F7
:10173C00BD4680BDBC00002080B588B000AF07F16D
:10174C00100300221A605A609A60DA602F4B9B6972
:10175C002E4A43F0100393612C4B9B6903F010034A
:10176C00FB60FB68294B9B69284A43F00403936197
:10177C00264B9B6903F00403BB60BB68234B9B693E
:10178C00224A43F008039361204B9B6903F0080342
:10179C007B607B68002243F2DC111D4800F025FDC4
:1017AC0000224FF6FF711B4800F01FFD4FF4604301
:1017BC003B6100237B610123BB6107F110031946D8
:1017CC00154800F07FFB43F2DC133B6101237B6186
:1017DC000023BB610223FB6107F1100319460C487F
:1017EC0000F070FB4FF6FF733B6101237B6100231C
:1017FC00BB610223FB6107F110031946054800F099
:10180C0061FB00BF2037BD4680BD00BF0010024009
:10181C0000080140000C01400010014080B582B06E
:10182C0000AF786000F0ACF8FEF7E4FCFEF78AFD40
:10183C00FEF734FD00BF0837BD4680BD80B400AF55
:10184C0072B600BFFEE7000080B483B000AF7860D2
:10185C00074B1B687A6892FBF3F3064A1360064B3E
:10186C0000221A6000BF0C37BD4680BC704700BF19
:10187C0060000020040100201C01002080B483B013
:10188C0000AF7860074B1B687A6892FBF3F3064A4B
:10189C001360064B00221A6000BF0C37BD4680BC9B
:1018AC00704700BF600000200801002020010020CC
:1018BC0080B483B000AF7860074B1B687A6892FBEA
:1018CC00F3F3064A1360064B00221A6000BF0C3774
:1018DC00BD4680BC704700BF600000200C0100209A
:1018EC002401002080B483B000AF7860074B1B68E4
:1018FC007A6892FBF3F3064A1360064B00221A60D7
:10190C0000BF0C37BD4680BC704700BF6000002094
:10191C00100100202801002080B483B000AF786053
:10192C00074B1B687A6892FBF3F3064A1360064B6D
:10193C0000221A6000BF0C37BD4680BC704700BF48
:10194C0060000020140100202C01002080B483B022
:10195C0000AF7860074B1B687A6892FBF3F3064A7A
:10196C001360064B00221A6000BF0C37BD4680BCCA
:10197C00704700BF600000201801002030010020DB
:10198C0080B400AF314B1B68002B0BDD2F4B1B6859
:10199C00013B2E4A13602D4B1B68002B02DC2C4B99
:1019AC0001221A602B4B1B68002B0BDD294B1B688B
:1019BC00013B284A1360274B1B68002B02DC264B8B
:1019CC0001221A60254B1B68002B0BDD234B1B6877
:1019DC00013B224A1360214B1B68002B02DC204B7D
:1019EC0001221A601F4B1B68002B0BDD1D4B1B6863
:1019FC00013B1C4A13601B4B1B68002B02DC1A4B6F
:101A0C0001221A60194B1B68002B0BDD174B1B684E
:101A1C00013B164A1360154B1B68002B02DC144B60
:101A2C0001221A60134B1B68002B0BDD114B1B683A
:101A3C00013B104A13600F4B1B68002B02DC0E4B52
:101A4C0001221A6000BFBD4680BC70470401002013
:101A5C001C01002008010020200100200C010020A6
:101A6C002401002010010020280100201401002076
:101A7C002C010020180100203001002080B485B01A
:101A8C0000AF154B9B69144A43F001039361124B51
:101A9C009B6903F00103BB60BB680F4BDB690E4A0B
:101AAC0043F08053D3610C4BDB6903F080537B60B4
:101ABC007B680A4B5B68FB60FB6823F0E063FB60B0
:101ACC00FB6843F08063FB60044AFB68536000BF13
:101ADC001437BD4680BC7047001002400000014026
:101AEC0080B584B000AF78607B681B68B3F1804F21
:101AFC0013D10C4BDB690B4A43F00103D361094B47
:101B0C00DB6903F00103FB60FB68002200211C2051
:101B1C0000F0A1F91C2000F0BAF900BF1037BD4647
:101B2C0080BD00BF0010024080B400AFFEE780B45F
:101B3C0000AFFEE780B400AFFEE780B400AFFEE775
:101B4C0080B400AFFEE780B400AF00BFBD4680BCE0
:101B5C00704780B400AF00BFBD4680BC704780B4F6
:101B6C0000AF00BFBD4680BC704780B500AF00F031
:101B7C007FF800BF80BD000080B500AF024800F0C8
:101B8C00E9FF00BF80BD00BFBC00002080B400AFE7
:101B9C0000BFBD4680BC70470C480D490D4A002360
:101BAC0002E0D458C4500433C4188C42F9D30A4A06
:101BBC000A4C002301E013600432A242FBD3FFF76E
:101BCC00E5FF01F00FFBFFF70FFD70470000002051
:101BDC0070000020883200087000002038010020BE
:101BEC00FEE7000080B500AF084B1B68074A43F0C6
:101BFC0010031360032000F023F90F2000F008F805
:101C0C00FFF73CFF0023184680BD00BF00200240B8
:101C1C0080B582B000AF7860124B1A68124B1B78FB
:101C2C0019464FF47A73B3FBF1F3B2FBF3F3184696
:101C3C0000F03BF90346002B01D001230EE07B683A
:101C4C000F2B0AD8002279684FF0FF3000F003F90F
:101C5C00064A7B681360002300E00123184608370E
:101C6C00BD4680BD640000206C0000206800002090
:101C7C0080B400AF054B1B781A46054B1B68134408
:101C8C00034A136000BFBD4680BC70476C00002047
:101C9C003401002080B400AF024B1B681846BD46CF
:101CAC0080BC70473401002080B485B000AF7860F0
:101CBC007B6803F00703FB600C4BDB68BB60BA6806
:101CCC004FF6FF031340BB60FB681A02BB6813435B
:101CDC0043F0BF6343F40033BB60044ABB68D3607A
:101CEC0000BF1437BD4680BC704700BF00ED00E05C
:101CFC0080B400AF044BDB681B0A03F007031846E3
:101D0C00BD4680BC704700BF00ED00E080B483B0DE
:101D1C0000AF0346FB7197F90730002B0BDBFB7907
:101D2C0003F01F02064997F907305B09012000FAFE
:101D3C0002F241F8232000BF0C37BD4680BC70472F
:101D4C0000E100E080B483B000AF03463960FB7162
:101D5C0097F90730002B0ADB3B68DAB20C4997F98C
:101D6C0007301201D2B20B4483F800230AE03B681F
:101D7C00DAB20849FB7903F00F03043B1201D2B22B
:101D8C000B441A7600BF0C37BD4680BC704700BFB1
:101D9C0000E100E000ED00E080B489B000AFF86035
:101DAC00B9607A60FB6803F00703FB61FB69C3F160
:101DBC000703042B28BF0423BB61FB690433062BE8
:101DCC0002D9FB69033B00E000237B614FF0FF323B
:101DDC00BB6902FA03F3DA43BB681A407B699A4089
:101DEC004FF0FF317B6901FA03F3D9437B680B4059
:101DFC00134318462437BD4680BC704780B582B06B
:101E0C0000AF78607B68013BB3F1807F01D3012385
:101E1C000FE00A4A7B68013B53600F214FF0FF3003
:101E2C00FFF790FF054B00229A60044B07221A60C3
:101E3C00002318460837BD4680BD00BF10E000E007
:101E4C0080B582B000AF78607868FFF72DFF00BFD7
:101E5C000837BD4680BD80B586B000AF0346B9607B
:101E6C007A60FB7300237B61FFF742FF78617A682D
:101E7C00B9687869FFF790FF024697F90F30114661
:101E8C001846FFF75FFF00BF1837BD4680BD80B511
:101E9C0082B000AF0346FB7197F907301846FFF785
:101EAC0035FF00BF0837BD4680BD80B582B000AF9E
:101EBC0078607868FFF7A2FF034618460837BD46DE
:101ECC0080BD000080B48BB000AF78603960002317
:101EDC007B6200233B6261E101227B6A02FA03F31D
:101EEC00FB613B681B68FA691340BB61BA69FB690B
:101EFC009A4240F050813B685B68974A93425ED0AF
:101F0C00954A934275D8954A934258D0934A934236
:101F1C006FD8934A934252D0914A934269D8914ACE
:101F2C0093424CD08F4A934263D88F4A934246D007
:101F3C008D4A93425DD8122B2AD8122B59D801A264
:101F4C0052F823F0CB1F0008A51F0008B71F00088C
:101F5C00F91F0008FF1F0008FF1F0008FF1F0008E3
:101F6C00FF1F0008FF1F0008FF1F0008FF1F0008CD
:101F7C00FF1F0008FF1F0008FF1F0008FF1F0008BD
:101F8C00FF1F0008FF1F0008AD1F0008C11F00083D
:101F9C00764A934213D02CE03B68DB683B6229E025
:101FAC003B68DB6804333B6224E03B68DB68083346
:101FBC003B621FE03B68DB680C333B621AE03B681A
:101FCC009B68002B02D104233B6213E03B689B68A7
:101FDC00012B05D108233B627B68FA691A6109E081
:101FEC0008233B627B68FA695A6103E000233B6279
:101FFC0000E000BFBB69FF2B01D87B6801E07B6868
:10200C0004337B61BB69FF2B02D87B6A9B0002E027
:10201C007B6A083B9B003B617B691A680F213B691B
:10202C0001FA03F3DB431A40396A3B6901FA03F303
:10203C001A437B691A603B685B6803F08053002B82
:10204C0000F0A9804A4B9B69494A43F00103936114
:10205C00474B9B6903F00103BB60BB68454A7B6A35
:10206C009B08023352F82330FB607B6A03F00303B6
:10207C009B000F2202FA03F3DB43FA681340FB6068
:10208C007B683D4A93420DD07B683C4A934207D013
:10209C007B683B4A934201D1022304E0032302E014
:1020AC00012300E000237A6A02F0030292009340BD
:1020BC00FA681343FB602F497B6A9B080233FA686A
:1020CC0041F823203B685B6803F48033002B06D077
:1020DC002C4B1A682B49BB6913430B6006E0294B48
:1020EC001A68BB69DB43274913400B603B685B688C
:1020FC0003F40033002B06D0224B5A682149BB69EC
:10210C0013434B6006E01F4B5A68BB69DB431D4908
:10211C0013404B603B685B6803F48013002B06D0C4
:10212C00184B9A681749BB6913438B6006E0154B33
:10213C009A68BB69DB43134913408B603B685B684F
:10214C0003F40013002B1FD00E4BDA680D49BB694A
:10215C001343CB601FE000BF0000321000003110B1
:10216C0000002210000021100000121000001110BD
:10217C00001002400000014000080140000C01402A
:10218C0000100140000401400B4BDA68BB69DB43D3
:10219C0009491340CB607B6A01337B623B681A6848
:1021AC007B6A22FA03F3002B7FF496AE00BF00BFCC
:1021BC002C37BD4680BC70470004014080B485B00C
:1021CC0000AF78600B467B807B689A687B881340F5
:1021DC00002B02D00123FB7301E00023FB73FB7B7C
:1021EC0018461437BD4680BC704780B483B000AF2E
:1021FC0078600B467B8013467B707B78002B03D07A
:10220C007A887B681A6103E07B881A047B681A6100
:10221C0000BF0C37BD4680BC704780B485B000AFA2
:10222C0078600B467B807B68DB68FB607A88FB6898
:10223C0013401A04FB68D9437B880B401A437B6814
:10224C001A6100BF1437BD4680BC704780B586B09C
:10225C0000AF78607B68002B01D1012372E27B68B0
:10226C001B6803F00103002B00F08780924B5B6826
:10227C0003F00C03042B0CD08F4B5B6803F00C03A6
:10228C00082B12D18C4B5B6803F48033B3F5803F81
:10229C000BD1894B1B6803F40033002B6CD07B688B
:1022AC005B68002B68D101234CE27B685B68B3F55B
:1022BC00803F06D1804B1B687F4A43F48033136008
:1022CC002EE07B685B68002B0CD17B4B1B687A4A39
:1022DC0023F480331360784B1B68774A23F48023F4
:1022EC0013601DE07B685B68B3F5A02F0CD1724BBB
:1022FC001B68714A43F4802313606F4B1B686E4A52
:10230C0043F4803313600BE06B4B1B686A4A23F475
:10231C0080331360684B1B68674A23F48023136077
:10232C007B685B68002B13D0FFF7B4FC386108E0C6
:10233C00FFF7B0FC02463B69D31A642B01D9032387
:10234C0000E25D4B1B6803F40033002BF0D014E06B
:10235C00FFF7A0FC386108E0FFF79CFC02463B69E4
:10236C00D31A642B01D90323ECE1534B1B6803F400
:10237C000033002BF0D100E000BF7B681B6803F03A
:10238C000203002B63D04C4B5B6803F00C03002B57
:10239C000BD0494B5B6803F00C03082B1CD1464B4C
:1023AC005B6803F48033002B16D1434B1B6803F09E
:1023BC000203002B05D07B681B69012B01D0012384
:1023CC00C0E13D4B1B6823F0F8027B685B69DB00C6
:1023DC00394913430B603AE07B681B69002B20D012
:1023EC00364B01221A60FFF755FC386108E0FFF705
:1023FC0051FC02463B69D31A022B01D90323A1E1FC
:10240C002D4B1B6803F00203002BF0D02A4B1B68EA
:10241C0023F0F8027B685B69DB00274913430B60F0
:10242C0015E0264B00221A60FFF734FC386108E0F7
:10243C00FFF730FC02463B69D31A022B01D9032368
:10244C0080E11D4B1B6803F00203002BF0D17B686D
:10245C001B6803F00803002B3AD07B689B69002BA8
:10246C0019D0174B01221A60FFF714FC386108E0F1
:10247C00FFF710FC02463B69D31A022B01D9032348
:10248C0060E10D4B5B6A03F00203002BF0D00120DE
:10249C0000F0A6FA1CE00A4B00221A60FFF7FAFBC8
:1024AC0038610FE0FFF7F6FB02463B69D31A022BAB
:1024BC0008D9032346E100BF00100240000042424D
:1024CC0080044242924B5B6A03F00203002BE9D179
:1024DC007B681B6803F00403002B00F0A68000232C
:1024EC00FB758B4BDB6903F08053002B0DD1884BB4
:1024FC00DB69874A43F08053D361854BDB6903F07A
:10250C008053BB60BB680123FB75824B1B6803F4D3
:10251C008073002B18D17F4B1B687E4A43F4807369
:10252C001360FFF7B7FB386108E0FFF7B3FB024617
:10253C003B69D31A642B01D9032303E1754B1B6848
:10254C0003F48073002BF0D07B68DB68012B06D181
:10255C006F4B1B6A6E4A43F0010313622DE07B68DC
:10256C00DB68002B0CD16A4B1B6A694A23F0010310
:10257C001362674B1B6A664A23F0040313621CE068
:10258C007B68DB68052B0CD1614B1B6A604A43F0FE
:10259C00040313625E4B1B6A5D4A43F00103136232
:1025AC000BE05B4B1B6A5A4A23F001031362584B36
:1025BC001B6A574A23F0040313627B68DB68002B09
:1025CC0015D0FFF767FB38610AE0FFF763FB0246A3
:1025DC003B69D31A41F28832934201D90323B1E00B
:1025EC004B4B1B6A03F00203002BEED014E0FFF7F9
:1025FC0051FB38610AE0FFF74DFB02463B69D31AE9
:10260C0041F28832934201D903239BE0404B1B6A71
:10261C0003F00203002BEED1FB7D012B05D13C4BCB
:10262C00DB693B4A23F08053D3617B68DB69002B69
:10263C0000F08780364B5B6803F00C03082B61D0ED
:10264C007B68DB69022B46D1334B00221A60FFF703
:10265C0021FB386108E0FFF71DFB02463B69D31AEA
:10266C00022B01D903236DE0294B1B6803F0007387
:10267C00002BF0D17B681B6AB3F5803F08D1244B4B
:10268C005B6823F400327B689B68214913434B60E1
:10269C001F4B5B6823F474127B68196A7B685B6A56
:1026AC000B431B4913434B601B4B01221A60FFF772
:1026BC00F1FA386108E0FFF7EDFA02463B69D31AEC
:1026CC00022B01D903233DE0114B1B6803F000736F
:1026DC00002BF0D035E0104B00221A60FFF7DAFA2D
:1026EC00386108E0FFF7D6FA02463B69D31A022B91
:1026FC0001D9032326E0064B1B6803F00073002B63
:10270C00F0D11EE07B68DB69012B07D1012319E0B6
:10271C000010024000700040600042420B4B5B68AE
:10272C00FB60FB6803F480327B681B6A9A4206D11B
:10273C00FB6803F470127B685B6A9A4201D0012338
:10274C0000E0002318461837BD4680BD001002403B
:10275C0080B584B000AF786039607B68002B01D104
:10276C000123D0E06A4B1B6803F007033A689A42D6
:10277C0010D9674B1B6823F0070265493B6813436C
:10278C000B60634B1B6803F007033A689A4201D055
:10279C000123B8E07B681B6803F00203002B20D0F8
:1027AC007B681B6803F00403002B05D0594B5B6856
:1027BC00584A43F4E06353607B681B6803F00803DA
:1027CC00002B05D0534B5B68524A43F46053536063
:1027DC00504B5B6823F0F0027B689B684D491343B8
:1027EC004B607B681B6803F00103002B40D07B68B7
:1027FC005B68012B07D1474B1B6803F40033002B9C
:10280C0015D101237FE07B685B68022B07D1414B1C
:10281C001B6803F00073002B09D1012373E03D4BBF
:10282C001B6803F00203002B01D101236BE0394B31
:10283C005B6823F003027B685B68364913434B608B
:10284C00FFF728FAF8600AE0FFF724FA0246FB6863
:10285C00D31A41F28832934201D9032353E02D4B12
:10286C005B6803F00C027B685B689B009A42EBD1BF
:10287C00274B1B6803F007033A689A4210D2244B8B
:10288C001B6823F0070222493B6813430B60204B63
:10289C001B6803F007033A689A4201D0012332E027
:1028AC007B681B6803F00403002B08D0194B5B6892
:1028BC0023F4E0627B68DB68164913434B607B684A
:1028CC001B6803F00803002B09D0124B5B6823F440
:1028DC0060527B681B69DB000E4913434B6000F0B0
:1028EC0021F802460B4B5B681B0903F00F030A49E6
:1028FC00CB5C22FA03F3094A1360094B1B68184698
:10290C00FFF786F9002318461037BD4680BD00BF7F
:10291C0000200240001002407032000864000020C9
:10292C006800002090B48AB000AF294B3C1D0FCB3F
:10293C0084E80F0040F201233B800023FB6100235D
:10294C00BB6100237B6200237B6100233B62214B34
:10295C005B68FB61FB6903F00C03042B02D0082BB2
:10296C0003D02BE01C4B3B622BE0FB699B0C03F070
:10297C000F0328333B4413F8243C7B61FB6903F4BD
:10298C008033002B12D0134B5B685B0C03F00103FC
:10299C0028333B4413F8283CBB617B690E4A03FB8C
:1029AC0002F2BB69B2FBF3F37B6204E07B690B4A76
:1029BC0002FB03F37B627B6A3B6202E0064B3B62E9
:1029CC0000BF3B6A18462837BD4690BC704700BF15
:1029DC00603200080010024000127A0000093D002D
:1029EC0080B485B000AF78600A4B1B680A4AA2FB22
:1029FC0003235B0A7A6802FB03F3FB6000BFFB68EE
:102A0C005A1EFA60002BF9D100BF00BF1437BD4627
:102A1C0080BC704764000020D34D621080B582B03A
:102A2C0000AF78607B68002B01D1012341E07B680B
:102A3C0093F83D30DBB2002B06D17B68002283F883
:102A4C003C207868FFF74CF87B68022283F83D2025
:102A5C007B681A687B6804331946104600F06AFAE2
:102A6C007B68012283F846207B68012283F83E2094
:102A7C007B68012283F83F207B68012283F8402089
:102A8C007B68012283F841207B68012283F8422075
:102A9C007B68012283F843207B68012283F8442061
:102AAC007B68012283F845207B68012283F83D2056
:102ABC00002318460837BD4680BD000080B485B0A1
:102ACC0000AF78607B6893F83D30DBB2012B01D00E
:102ADC00012335E07B68022283F83D207B681B686C
:102AEC00DA687B681B6842F00102DA607B681B685D
:102AFC00164A934209D07B681B68B3F1804F04D00F
:102B0C007B681B68124A934211D17B681B689B68D7
:102B1C0003F00703FB60FB68062B10D07B681B6877
:102B2C001A687B681B6842F001021A6007E07B6838
:102B3C001B681A687B681B6842F001021A6000234C
:102B4C0018461437BD4680BC704700BF002C0140AE
:102B5C000004004080B582B000AF78607B681B68D1
:102B6C001B6903F00203022B22D17B681B68DB6814
:102B7C0003F00203022B1BD17B681B686FF002026F
:102B8C001A617B6801221A777B681B689B6903F0CA
:102B9C000303002B03D0786800F0B1F905E07868E6
:102BAC0000F0A4F9786800F0B3F97B6800221A777A
:102BBC007B681B681B6903F00403042B22D17B6820
:102BCC001B68DB6803F00403042B1BD17B681B68B8
:102BDC006FF004021A617B6802221A777B681B680B
:102BEC009B6903F44073002B03D0786800F087F9DD
:102BFC0005E0786800F07AF9786800F089F97B686C
:102C0C0000221A777B681B681B6903F00803082BEA
:102C1C0022D17B681B68DB6803F00803082B1BD1EF
:102C2C007B681B686FF008021A617B6804221A77B4
:102C3C007B681B68DB6903F00303002B03D0786807
:102C4C0000F05DF905E0786800F050F9786800F064
:102C5C005FF97B6800221A777B681B681B6903F09D
:102C6C001003102B22D17B681B68DB6803F0100368
:102C7C00102B1BD17B681B686FF010021A617B68EC
:102C8C0008221A777B681B68DB6903F44073002BFE
:102C9C0003D0786800F033F905E0786800F026F985
:102CAC00786800F035F97B6800221A777B681B681E
:102CBC001B6903F00103012B0ED17B681B68DB68D9
:102CCC0003F00103012B07D17B681B686FF0010235
:102CDC001A617868FEF7A2FD7B681B681B6903F01C
:102CEC008003802B0ED17B681B68DB6803F08003AC
:102CFC00802B07D17B681B686FF080021A617868A3
:102D0C0000F067FA7B681B681B6903F04003402BDB
:102D1C000ED17B681B68DB6803F04003402B07D1A6
:102D2C007B681B686FF040021A61786800F0F9F854
:102D3C007B681B681B6903F02003202B0ED17B687A
:102D4C001B68DB6803F02003202B07D17B681B6812
:102D5C006FF020021A61786800F032FA00BF083771
:102D6C00BD4680BD80B584B000AF786039607B68AB
:102D7C0093F83C30012B01D10223B3E07B68012294
:102D8C0083F83C207B68022283F83D207B681B681B
:102D9C009B68FB60FB6823F07703FB60FB6823F404
:102DAC007F43FB607B681B68FA689A603B681B6812
:102DBC00B3F5005F3ED0B3F5005F00F28780B3F54A
:102DCC00805F00F08580B3F5805F7FD8702B1AD0C0
:102DDC00702B7BD8602B50D0602B77D8502B3CD0ED
:102DEC00502B73D8402B58D0402B6FD8302B64D03D
:102DFC00302B6BD8202B60D0202B67D8002B5CD0CD
:102E0C00102B5AD062E07B6818683B6899683B6865
:102E1C005A683B68DB6800F05CF97B681B689B6850
:102E2C00FB60FB6843F07703FB607B681B68FA6808
:102E3C009A604EE07B6818683B6899683B685A68F2
:102E4C003B68DB6800F045F97B681B689A687B6817
:102E5C001B6842F480429A603BE07B6818683B68D0
:102E6C0059683B68DB681A4600F0BCF87B681B6845
:102E7C005021184600F013F92BE07B6818683B686A
:102E8C0059683B68DB681A4600F0DAF87B681B6807
:102E9C006021184600F003F91BE07B6818683B685A
:102EAC0059683B68DB681A4600F09CF87B681B6825
:102EBC004021184600F0F3F80BE07B681A683B6879
:102ECC001B681946104600F0EAF802E000BF00E06B
:102EDC0000BF7B68012283F83D207B68002283F8C9
:102EEC003C20002318461037BD4680BD80B483B00B
:102EFC0000AF786000BF0C37BD4680BC704780B413
:102F0C0083B000AF786000BF0C37BD4680BC704703
:102F1C0080B483B000AF786000BF0C37BD4680BC76
:102F2C00704780B483B000AF786000BF0C37BD46EB
:102F3C0080BC704780B485B000AF786039607B6826
:102F4C001B68FB607B68254A934207D07B68B3F112
:102F5C00804F03D07B68224A934208D1FB6823F050
:102F6C007003FB603B685B68FA681343FB607B682B
:102F7C001A4A934207D07B68B3F1804F03D07B6829
:102F8C00174A934208D1FB6823F44073FB603B68FB
:102F9C00DB68FA681343FB60FB6823F080023B6834
:102FAC005B691343FB607B68FA681A603B689A683C
:102FBC007B68DA623B681A687B689A627B68074AAE
:102FCC00934203D13B681A697B681A637B680122C0
:102FDC005A6100BF1437BD4680BC7047002C0140BD
:102FEC000004004080B487B000AFF860B9607A602C
:102FFC00FB681B6A7B61FB681B6A23F00102FB68A0
:10300C001A62FB689B693B613B6923F0F0033B61EF
:10301C007B681B013A6913433B617B6923F00A030C
:10302C007B617A69BB6813437B61FB683A699A617F
:10303C00FB687A691A6200BF1C37BD4680BC7047BA
:10304C0080B487B000AFF860B9607A60FB681B6A27
:10305C0023F01002FB681A62FB689B697B61FB68BA
:10306C001B6A3B617B6923F470437B617B681B03A8
:10307C007A6913437B613B6923F0A0033B61BB6816
:10308C001B013A6913433B61FB687A699A61FB68DF
:10309C003A691A6200BF1C37BD4680BC704780B4C9
:1030AC0085B000AF786039607B689B68FB60FB681B
:1030BC0023F07003FB603A68FB68134343F007038B
:1030CC00FB607B68FA689A6000BF1437BD4680BC11
:1030DC00704780B487B000AFF860B9607A603B602D
:1030EC00FB689B687B617B6923F47F437B613B6856
:1030FC001A027B681A43BB6813437A6913437B61DA
:10310C00FB687A699A6000BF1C37BD4680BC70476B
:10311C0080B485B000AF786039607B6893F83C3040
:10312C00012B01D1022341E07B68012283F83C2072
:10313C007B68022283F83D207B681B685B68FB6020
:10314C007B681B689B68BB60FB6823F07003FB60AB
:10315C003B681B68FA681343FB607B681B68FA6862
:10316C005A607B681B68144A934209D07B681B68C1
:10317C00B3F1804F04D07B681B68104A93420CD18A
:10318C00BB6823F08003BB603B685B68BA68134381
:10319C00BB607B681B68BA689A607B68012283F805
:1031AC003D207B68002283F83C200023184614370E
:1031BC00BD4680BC704700BF002C0140000400409D
:1031CC0080B483B000AF786000BF0C37BD4680BCC4
:1031DC00704780B483B000AF786000BF0C37BD4639
:1031EC0080BC704770B500260C4D0D4C641BA410B0
:1031FC00A64209D100F022F800260A4D0A4C641BA5
:10320C00A410A64205D170BD55F8043B9847013671
:10321C00EEE755F8043B98470136F2E78032000898
:10322C0080320008803200088432000803460244D1
:10323C00934200D1704703F8011BF9E7F8B500BFC2
:10324C00F8BC08BC9E467047F8B500BFF8BC08BC7B
:04325C009E467047D3
:1032600002030405060708090A0B0C0D0E0F1010C7
:103270000000000000000000010203040607080926
:043280003101000810
:043284000D01000830
:103288000100000001000000010000000100000032
:103298000100000001000000010000000100000022
:1032A8000100000001000000010000000100000012
:1032B8000A000000020000000100000002000000F7
:1032C80003000000040000000500000003000000E7
:1032D80002000000050000000300000002000000DA
:1032E800010000000024F4001000000001000000AC
:0400000508001BA52F
:00000001FF
